:020000040800F2
:1000000000800120D19100080592000805920008A7
:100010000592000805920008059200080000000003
:10002000000000000000000000000000E54900089A
:1000300005920008000000007B4A00088B4A000877
:100040000592000805920008059200080592000834
:100050000592000805920008059200080592000824
:100060000592000805920008059200080592000814
:100070000592000805920008059200080592000804
:10008000059200080592000805920008CDBE000800
:10009000B9BE000805920008E1BE000805920008FC
:1000A00005920008059200080592000805920008D4
:1000B00005920008059200080592000805920008C4
:1000C00005920008059200080592000805920008B4
:1000D00005920008059200080592000805920008A4
:1000E0000592000805920008059200080592000894
:1000F0000592000805920008059200080592000884
:100100000592000805920008059200080592000873
:100110000592000805920008059200080592000863
:100120000592000805920008059200080592000853
:100130000592000805920008059200080592000843
:100140000592000805920008059200080592000833
:100150000592000805920008059200080592000823
:100160000592000805920008059200080592000813
:100170000592000805920008000000000000000041
:10018000059200080592000810B5054C237833B994
:10019000044B13B10448AFF300800123237010BD5A
:1001A000980A00200000000020A8020808B5034BB0
:1001B0001BB103490348AFF3008008BD00000000F5
:1001C0009C0A002020A80208A3F5803A704700BFCF
:1001D000174B002B08BF134B9D46FFF7F5FF00217F
:1001E0008B460F461348144A121A1BF007FE0E4B9B
:1001F000002B00D098470D4B002B00D098470020D3
:10020000002104000D000D48002802D00C4803F026
:1002100025FE1BF0FDF82000290004F047FB03F049
:1002200013FE00BF00000800000000006D49000838
:1002300000800120980A0020C05300205D3E000885
:100240000000000082B001900091009B002B05D0BF
:10025000019B9B68019A12681A6004E0019BDB68AD
:10026000019A12681A6000BF02B0704782B0019014
:10027000019B5B681A68019B1B681340002B01D02F
:10028000012300E00023184602B0704700B583B098
:1002900001900B46ADF80230019B1A460023136013
:1002A00053609360D360136153619361019BBDF907
:1002B00002201146184602F010FB019B184603B0BD
:1002C0005DF804FB00B583B001900091019B00999B
:1002D0001846FFF7B7FF00BF03B05DF804FB00B599
:1002E00083B00190019B1846FFF7C0FF03461846F4
:1002F00003B05DF804FB82B001900091009B1846AA
:1003000002B0704700B583B001900091009B002BB4
:1003100003D1019B0022DA6004E06B461946019884
:1003200000F056F8019B184603B05DF804FB00B5D9
:1003300083B00190019BDB68002B04D0019BDB683C
:100340009B6801989847019B184603B05DF804FB31
:1003500000B583B001900091019A009B9A420CD0A5
:100360000198FFF7E4FF019B19461020FFF7C3FF38
:1003700003460099184600F041F8019B184603B067
:100380005DF804FB82B00190019BDB68002B14BF79
:1003900001230023DBB2184602B0704700B583B0DA
:1003A0000190019BDB68002B05D140F20E2206492B
:1003B000064803F0C3F8019BDB681B680198984767
:1003C00000BF03B05DF804FBB0860208D4860208C3
:1003D00000B583B001900091019B19460420FFF7FE
:1003E0008AFF0246009B1B681360019B024ADA6089
:1003F00000BF03B05DF804FBDC86020800B583B0E3
:1004000001900091009BDB68002B05D0009BDB680E
:100410005B68009901989847009BDA68019BDA6055
:10042000019B184603B05DF804FB00B583B0019052
:10043000019B1B68984700BF03B05DF804FB00B543
:1004400083B001900091019B19460420FFF753FFF0
:100450000246009B1B68136000BF03B05DF804FBFD
:1004600082B0019000BF02B07047000008B5044B95
:100470001B684FF0FF31184606F0E6FE00BF08BDCE
:100480000050002008B5034B1B68184606F010FF0B
:1004900000BF08BD0050002000B583B00190019B53
:1004A000DB68002B04D0019BDB689B6801989847B0
:1004B000019B184603B05DF804FB00B583B00190C2
:1004C0000091009B002B03D1019B0022DA6004E025
:1004D0006B461946019800F011F8019B184603B0CD
:1004E0005DF804FB00B583B00190019800F01CF8A2
:1004F0000346184603B05DF804FB000000B583B066
:1005000001900091019B19460420FFF7F4FE02467A
:10051000009B1B681360019B024ADA6000BF03B0B6
:100520005DF804FB5087020810B582B00190019B72
:100530001B68002B13D1FFF799FF019B1B68002B51
:100540000BD1019B043319463020FFF7D4FE04463B
:10055000204603F09DFE019B1C60FFF793FF019B6B
:100560001A68019B04339A4204D05B22044905486F
:1005700002F0E4FF019B1B68184602B010BD00BFEB
:10058000148702083C87020800B583B001900091EF
:10059000019B1B680098984700BF03B05DF804FBFF
:1005A00000B583B001900091019B19460420FFF72C
:1005B000A2FE0246009B1B68136000BF03B05DF8FB
:1005C00004FB82B0019000BF02B0704782B001907E
:1005D000019B5B681A68019B1B681340002B01D0CC
:1005E000012300E00023184602B0704700BF7047A7
:1005F00010B58AB001900B46ADF80230019800F0BA
:1006000037F92B4A019B1A60019B043300221A60C0
:100610005A609A60DA601A615A619A61019B2033CC
:1006200000221A605A609A60DA60019B3033002120
:100630001846FFF767FE019B403300211846FFF77D
:1006400061FE019B03F1300402AB1A491846FFF723
:1006500059FE02AB19462046FFF77AFE02AB184658
:10066000FFF765FE019B03F1400406AB11491846F4
:10067000FFF748FE06AB19462046FFF769FE06ABBA
:100680001846FFF754FE019B03F12000019BBDF9C2
:100690000210094A0BF00EFF019B0433BDF9022042
:1006A0001146184602F0F3F8019B18460AB010BD37
:1006B00064870208ED050008D507000800B583B07F
:1006C00001900D4A019B1A60019B203318460BF0E4
:1006D000CDFF019B40331846FFF729FE019B3033C5
:1006E0001846FFF724FE019800F0C8F8019B184651
:1006F00003B05DF804FB00BF6487020800B583B057
:1007000001900198FFF7DAFF019803F083FC019B49
:10071000184603B05DF804FB00B583B00190019B5F
:1007200004331846FFF752FF0346184603B05DF83E
:1007300004FB00B583B001900B468DF8033002F046
:100740007FFF019B04339DF80320114618460BF0F0
:1007500021FD02F0C1FF00BF03B05DF804FB000003
:1007600010B586B00190009102F06AFF0098FFF783
:1007700009FE0346002B0DD0019B3033009918462B
:10078000FFF7E6FD019B20330122012118460BF003
:10079000AFFF17E0019B03F1300402AB0C49184690
:1007A000FFF7B0FD02AB19462046FFF7D1FD02ABC3
:1007B0001846FFF7BCFD019B20330022012118469B
:1007C0000BF096FF02F088FF00BF06B010BD00BF1F
:1007D000ED05000800B585B001900B468DF803309B
:1007E000019B03939DF80330022B0BD0022B10DCEE
:1007F000002B0DD0012B0CD1039B3033184600F099
:1008000043F806E0039B4033184600F03DF800E053
:1008100000BF00BF05B05DF804FB00B583B00190D8
:1008200002F00EFF019B203318460BF0ADFF02F0E3
:1008300053FF00BF03B05DF804FB00B583B0019027
:1008400002F0FEFE019B203318460BF0E7FF02F09A
:1008500043FF00BF03B05DF804FB00B583B0019017
:100860000198FFF759FF0346184603B05DF804FBF3
:1008700082B00190019B184602B0704782B001908F
:10088000019B184602B0704700B583B001900198F3
:10089000FFF784FD03B05DF804FB000010B582B0E3
:1008A00001900D4A019B1A60019B2833002B0CD04C
:1008B000019B283303F12004019B28339C4204D080
:1008C000103C2046FFF733FDF6E7019800F014F8DE
:1008D000019B184602B010BD2088020800B583B005
:1008E00001900198FFF7DAFF019803F093FB019B59
:1008F000184603B05DF804FB82B00190019B1846D6
:1009000002B0704700B583B001900A4A019B1A609B
:10091000019BC4331846FFF7BFFD019BA033184667
:1009200000F077F9019800F06EF9019B184603B0CA
:100930005DF804FB7487020800B583B0019001984C
:10094000FFF7E0FF019803F065FB019B184603B039
:100950005DF804FB10B586B00590084611461A46AE
:100960000346ADF812300B46ADF810301346ADF823
:100970000E30059800F06FF91D4A059B1A60059B23
:1009800004339C22002118461BF038FA059BA03343
:100990000599184600F065F9059BC43300211846F7
:1009A000FFF78BFD059B002283F8D420059B0822CE
:1009B000C3F8D820059B0022C3F8DC20059B0D4A14
:1009C000C3F8E020059B181DBDF90E40BDF91020AD
:1009D000BDF91210BDF92030009323460CF0E0FB66
:1009E000059800F069F8059B184606B010BD00BFD9
:1009F0007487020840420F0000B585B00390029151
:100A00000192039B1B6808331B6803989847039B5C
:100A1000029AC3F8D820039B019AC3F8DC200F4B3D
:100A20001B68039A9A420BD1039B181D039BD3F8B2
:100A3000D810039BD3F8DC2000230CF0B1FC02E0BB
:100A4000039800F039F8039B1B680C331B6803986C
:100A5000984700BF05B05DF804FB00BF180B0020ED
:100A600000B583B001900091019B1B6808331B689F
:100A700001989847019B009AC3F8E0200D4B1B6832
:100A8000019A9A4209D1019B1A1D019BD3F8E030CB
:100A9000194610460CF0E0FC02E0019800F00CF85A
:100AA000019B1B680C331B680198984700BF03B07B
:100AB0005DF804FB180B002000B583B00190104BCB
:100AC0001B68019A9A4216D0019B181D019BD3F80E
:100AD000D810019BD3F8DC2000230CF061FC019BB3
:100AE0001A1D019BD3F8E030194610460CF0B4FCF7
:100AF000034A019B136000BF03B05DF804FB00BF15
:100B0000180B002000B585B001900091019B1B6877
:100B100008331B68019898470198FFF7CDFF019BA8
:100B20000433009918460CF0D5FC0390019B1B6818
:100B30000C331B6801989847039B184605B05DF875
:100B400004FB00B589B00590049103920293059BC4
:100B50001B6808331B68059898470598FFF7ACFF9A
:100B6000059B181D0A9B0093029B039A04990CF0A5
:100B70000CFD0790059B1B680C331B680598984774
:100B8000079B184609B05DF804FB000000B583B070
:100B900001900648FFF7A6FC03464FF0FF311846C8
:100BA00003F0C6FB00BF03B05DF804FB1C0B002084
:100BB00000B583B001900548FFF794FC0346184642
:100BC00003F0C5FB00BF03B05DF804FB1C0B002065
:100BD00000B583B00190019B143300211846FFF744
:100BE0006CFC019B184603B05DF804FB00B583B0B4
:100BF0000190019B14331846FFF74EFC019B1846E9
:100C000003B05DF804FB82B00190019B184602B06E
:100C1000704782B00190019B184602B0704730B512
:100C200083B00190019B01241D46002C05DB284662
:100C300000F039F82C35013CF7E7019B00229A655A
:100C4000019B0022DA65019B002283F86020019B52
:100C5000184603B030BD82B00190019B184602B027
:100C6000704700B587B003900291002304930023DE
:100C700005930023009304AB0CCB0299039800F07A
:100C800029F8039B184607B05DF804FB00B583B054
:100C90000190019B04331846FFF7A8FF019B1846FB
:100CA00003B05DF804FB00B583B00190019B002206
:100CB0001A60019B04332822002118461BF09EF87D
:100CC000019B04331846FFF783FF019B184603B0CE
:100CD0005DF804FB84B003900291694681E80C0042
:100CE000039B04336A4692E8030083E80300039BF6
:100CF0000E4ADA60039B48F207021A61049A039BCA
:100D00009A61029A039B5A61039B04331A46039B20
:100D1000DA61074A039B1A62BFF36F8F00BFBFF30C
:100D20004F8F00BF00BF04B0704700BF01A090E824
:100D3000350D000800B585B0039002910192039B28
:100D4000002B2AD0019B1B68002B07D1019B5B68FD
:100D500003F00103002B01D1012300E00023012B4C
:100D60001BD0019B5B685B101A46039B9818019B84
:100D70005B6803F00103002B0BD0019B5B685B10E9
:100D80001A46039B13441B68019A126813441B689C
:100D900001E0019B1B680299984700BF05B05DF810
:100DA00004FB000000B583B001900091019B012B72
:100DB0000CD1009B4FF6FF72934207D10548FFF715
:100DC0002EFF054A0549034803F036F800BF03B07B
:100DD0005DF804FBB40A002000000020E10D0008CB
:100DE00010B582B00190019B002B0AD0019B03F14A
:100DF0005804019B9C4204D02C3C2046FFF746FF40
:100E0000F7E7019B184602B010BD08B54FF6FF7119
:100E10000120FFF7C7FF08BD00B585B00390029120
:100E20000192039B1B6810331B68019A0299039877
:100E300098470346184605B05DF804FB00B583B03B
:100E40000190019B1B6818331B6801989847034663
:100E5000184603B05DF804FB00B583B00190019B18
:100E60001B6828331B68019898470346184603B04F
:100E70005DF804FB82B001900B468DF803304FF013
:100E8000FF33184602B0704782B001900B46ADF8B0
:100E900002301123184602B0704782B001900091D1
:100EA00000BF02B07047000000B585B00390019309
:100EB0000B46ADF80A301346ADF808300398BDF97B
:100EC0000820BDF90A10069B00F0B6F8039B4C33CE
:100ED0000199184602F0C2F9039800F05DF8094A3A
:100EE000039B1A60084A039BDA64084A039B1A654D
:100EF000039B6433184603F0CBF9039B184605B0F7
:100F00005DF804FB94870208B48702081088020881
:100F100000B583B00190019B184600F008F9034624
:100F2000184603B05DF804FBA0F14C00FFF7F0BFDA
:100F300000B583B001900091019B0099184600F024
:100F400003F90346184603B05DF804FBA0F14C001A
:100F5000FFF7EEBF00B583B00190019B64334FF003
:100F6000FF31184603F0E4F900BF03B05DF804FB5D
:100F7000A0F14C00FFF7EEBF00B583B00190019BDC
:100F80006433184603F0E3F900BF03B05DF804FBD7
:100F9000A0F14C00FFF7F0BF82B00190019B184612
:100FA00002B0704782B00190019B184602B07047B2
:100FB00000B583B001900F4A019B1A600E4A019B55
:100FC000DA640E4A019B1A65019B6433184603F0EC
:100FD000CBF90198FFF7E6FF019B4C33184602F06E
:100FE00079F9019B1846FFF759FC019B184603B09D
:100FF0005DF804FB94870208B48702081088020891
:10100000A0F14C00D4E7A0F15000D1E700B583B0C7
:1010100001900198FFF7CCFF019802F0FBFF019BC4
:10102000184603B05DF804FBA0F14C00EEE7A0F118
:101030005000EBE700BF704730B58BB003900193D1
:101040000B46ADF80A301346ADF80830039800F0AF
:1010500094F8294A039B1A60039B0433242200213D
:1010600018461AF0CBFE039B283301241D46002CA2
:1010700006DB00212846FFF745F91035013CF6E76D
:10108000039B019A9A6400230993099B012B16D8AC
:10109000099B1B012833039AD41805AB174918463E
:1010A000FFF730F905AB19462046FFF751F905ABBC
:1010B0001846FFF73CF9099B01330993E5E7039BC9
:1010C0000433BDF90820BDF90A1018460AF0D4FB14
:1010D000039B1A1D039B9B6C194610460AF01EFDCC
:1010E000039B0433039A064918460AF027FD039B25
:1010F00018460BB030BD00BF20880208351000082C
:101100000511000800B585B001900B468DF803303D
:10111000019B03939DF803301B012833039A13446A
:101120001846FFF7B1FB00BF05B05DF804FB00B542
:1011300083B00190019B043318460AF015FD034665
:10114000184603B05DF804FB00B583B00190009130
:10115000019B0433009918460AF032FD009B1846A3
:1011600003B05DF804FB82B0019000BF02B070478D
:1011700082B0019000BF02B0704782B00190019B25
:10118000184602B07047000000B583B001900B4ACA
:10119000019B1A60019800F021F8019B2833184642
:1011A000FFF7C5F8019800F07BF8019B184600F0A6
:1011B0009FF9019B184603B05DF804FB38880208CC
:1011C00000B583B001900198FFF7DEFF019802F0AF
:1011D00021FF019B184603B05DF804FB10B586B0F3
:1011E000019002F02DFA019B184600F0A9F9019B2D
:1011F00003F1280402AB00211846FFF783F802AB85
:1012000019462046FFF7A4F802AB1846FFF78FF8FF
:1012100002F062FA00BF06B010BDF0B585B00390D1
:10122000CDE9002302F00CFA039B184600F088F980
:101230000399DDE90023C1E90823039B0293039B83
:10124000D3E90845039B9B69184601F090FD0246CF
:101250000B46A61845EB030732463B46029800F0C2
:101260005BF902F039FA00BF05B0F0BD70B582B08D
:101270000190019E019BD3E90201019BD3E9082360
:10128000841841EB030522462B46304600F044F912
:10129000019B28331846FFF7F7FA00BF02B070BD74
:1012A00082B00190019B184602B0704700B583B030
:1012B0000190019B28331846FFF770F800BF03B078
:1012C0005DF804FB00B583B00190074A019B1A60EA
:1012D000019800F019F8019B1846FFF755FF019B94
:1012E000184603B05DF804FB4C88020800B583B0D3
:1012F00001900198FFF7E6FF019802F08BFE019B39
:10130000184603B05DF804FB82B00190019B1846BB
:1013100002B0704700B583B00190019800F0A7F8C3
:10132000019B00221A6001994FF000024FF0000368
:10133000C1E9022301994FF000024FF00003C1E917
:10134000042301F023FD0246019B9A61019800F0FD
:1013500072F8019B184603B05DF804FB00B583B03A
:10136000019002F06DF9019B1B68002B0CD1019BD1
:101370009B69184601F0FBFC02460B460199C1E946
:101380000223019B01221A6002F0A6F900BF03B0FC
:101390005DF804FB00B583B00190019800F00DF8F2
:1013A0004FF47A724FF0000326F03CF802460B46E9
:1013B0001346184603B05DF804FBF0B585B0019004
:1013C00002F03EF9019BD3E90445019800F00FF8C3
:1013D00002460B46A61845EB0307CDE9026702F06B
:1013E0007BF9DDE902231046194605B0F0BD30B5A2
:1013F00085B001904FF000024FF00003CDE90223C9
:1014000002F01EF9019B1B68002B0CD0019B9B690D
:10141000184601F0ACFC019BD3E90223841A61EB6E
:101420000305CDE9024502F057F9DDE90223104634
:10143000194605B030BD00B583B0019002F000F947
:10144000019B9B69184601F092FC02460B460199EC
:10145000C1E9022301994FF000024FF00003C1E9F6
:10146000042302F039F900BF03B05DF804FB82B039
:101470000190019B184602B07047000000B583B090
:101480000190019800F06BF80F4A019B1A600199D6
:101490004FF000024FF00003C1E90223019B00223C
:1014A0001A61019B00225A6101F070FC0246019B07
:1014B0009A61019B9B690549184601F097FB019BC6
:1014C000184603B05DF804FB60880208D1140008D8
:1014D00000B585B00190019B0393039B1B68083303
:1014E0001B680398984700BF05B05DF804FB000037
:1014F00000B583B00190074A019B1A60019800F083
:101500001FF8019800F031F8019B184603B05DF810
:1015100004FB00BF6088020800B587B00590CDE9E4
:101520000223059B9869059B03F10801059B009325
:10153000DDE9022301F0A7FB00BF07B05DF804FB63
:1015400000B583B00190019B9A69019B083319464D
:10155000104601F0DCFB00BF03B05DF804FB82B075
:101560000190019B184602B0704782B00190019B28
:10157000184602B07047000000B583B00190054ADC
:10158000019B1A60019800F045F8019B184603B0D2
:101590005DF804FBA089020800B583B001900198B2
:1015A000FFF7EAFF019802F035FD019B184603B0F2
:1015B0005DF804FB00B583B00190019B1B681033FC
:1015C0001B6801220021019898470346184603B082
:1015D0005DF804FB00B583B00190019B1B681033DC
:1015E0001B68002200210198984700BF03B05DF8F6
:1015F00004FB000000B583B00190019800F010F8E2
:10160000034A019B1A60019B184603B05DF804FB76
:10161000A089020882B00190019B184602B0704771
:1016200082B00190019B184602B0704700B585B0AA
:10163000039002910192039800F03BF8039B503312
:1016400000211846FEF739FF019B002B05D1039BB3
:101650000299184600F06CF805E0039B019A029984
:10166000184600F082F8039B184605B05DF804FBAD
:1016700000B583B00190019B184600F0D9F8019B9A
:1016800050331846FEF708FF019800F018F8019B48
:10169000184603B05DF804FB00B583B001900091DB
:1016A000019B0099184600F01FFB00BF03B05DF8D6
:1016B00004FB82B00190019B184602B0704782B0D3
:1016C0000190019B184602B0704782B001900091D2
:1016D000019A009BD31A184602B0704700B585B036
:1016E0000190009100990198FFF7EFFF0390039B91
:1016F000DB17DA43039B1340184605B05DF804FB83
:1017000082B001900091009B1B790133DAB2009BFB
:101710001A71009B1B791A46019B5B6902FA03F35D
:10172000002B02D1009B01221A7100BF02B070474A
:1017300000B585B001900091009819F00FFF0346A5
:101740000393039B002B02D14FF0FF3309E0039A70
:101750000099019800F009F80290019B039A9A61A0
:10176000029B184605B05DF804FB00B587B00390F6
:1017700002910192039B019A1A61039B00229A61D4
:10178000039B00225A61029B059307E0039B5B6960
:101790005A1C039B5A61059B5B080593059B002B14
:1017A000F4D1039B0022DA61039B029A1A62039B25
:1017B000019A5A62039B00221A6000F001FC024663
:1017C000039B5A60039B00221A73039B00229A60BA
:1017D000039B002283F82820039B0022DA62039BEC
:1017E00000221A63039B3433184600F032FC049045
:1017F000049B002B01DA049B16E0039B4833184638
:1018000000F00AFC0490049B002B01DA049B0BE01F
:10181000039B4C33184600F0FFFB0490049B002B05
:1018200001DA049B00E00023184607B05DF804FBD2
:1018300000B585B00190019B1B68039316E0019BE6
:101840001B6802930CE0029BDB69002B05D0029B16
:10185000DB69029A243210469847029BDB680293A8
:10186000029B002BEFD1039B9B680393039B002BF0
:10187000E5D1019BDB6A002B07D0019BDB6A019A53
:10188000126B4FF0FF3110469847019B4C331846BE
:1018900000F0C8FB019B4833184600F0C3FB019BD6
:1018A0003433184600F0F6FB019B9B69184619F08B
:1018B0005DFE00BF05B05DF804FB00B587B0019088
:1018C0000091009B24330093009B033323F0030318
:1018D0000093019B4C33184600F0A9FB019B1C337D
:1018E000059325E0059B1B681B68009A9A421BD84C
:1018F000059B1B680393039BDB68002B09D0039BAC
:10190000DA68059B1A60059B1B68039A92689A60C7
:1019100003E0039B9A68059B1A60019B4C331846B1
:1019200000F08EFB039B2EE0059B1B68083305939C
:10193000059B1B68002BD5D1019B1B6A009A9A421C
:101940001BD8019B5B6A0493019B5A6A009B1A4453
:10195000019B5A62019B1A6A009BD21A019B1A6270
:10196000049B009A1A60049B01221A71019B4C335C
:10197000184600F065FB049B05E0019B4C331846BC
:1019800000F05EFB0023184607B05DF804FB00B5CD
:1019900085B001900091019B4C33184600F047FB45
:1019A000019B1C33039303E0039B1B6808330393E1
:1019B000039B1B68002B06D0039B1B681A68009BC7
:1019C0001B689A42F0D3039B1B68002B10D0039B2B
:1019D0001B681A68009B1B689A4209D1039B1A680E
:1019E000009BDA60039B1B689A68009B9A6006E084
:1019F000009B0022DA60039B1A68009B9A60039B9D
:101A0000009A1A60019B4C33184600F019FB00BF86
:101A100005B05DF804FB00B585B001900091009918
:101A20000198FFF74AFF0390039B002B01D100238D
:101A30000BE0039B00225A61039B4FF0FF329A6137
:101A4000039B0022DA61039B2433184605B05DF83E
:101A500004FB00B585B001900091009B243B0393EB
:101A6000039BDB69002B05D0039BDB69039A2432BF
:101A70001046984703990198FFF789FF00BF05B00A
:101A80005DF804FB30B587B0039002910192029B90
:101A90001B791A46039B5B699A40039B1B69029959
:101AA000CB1A13430493029B5B6901991846FFF715
:101AB00015FE03461A46019B1A44029B5A61039B7A
:101AC0001A7B029B5A71039B4833184600F0AFFA09
:101AD000039B059303E0059B1B6808330593059B57
:101AE0001B68002B0BD0059B1B685A69029B5B6926
:101AF00019461046FFF7E9FD0346002BEBDB059B7B
:101B00001B68002B1ED0059B1B685A69029B5B69F2
:101B10009A4217D1059B1B689A68029B9A60029BA8
:101B20009B68002B04D0029B9B68029A08321A61C2
:101B3000059B1A68029BDA60029BDB68029A0C32F2
:101B40001A610FE0059B1A68029B9A60029B9B68D2
:101B5000002B04D0029B9B68029A08321A61029BF8
:101B60000022DA60059B029A1A60029B059A1A61AC
:101B7000039BDB6A002B1BD0039B93F82830002BC0
:101B800016D0039B1B68029A9A4211D1029BDB6814
:101B9000002B0DD1039BDC6A039B1D6B029B5B69D1
:101BA00001991846FFF79AFD034619462846A047B3
:101BB000039B4833184600F043FA049B184607B0CD
:101BC00030BD00B58BB001900091019B48331846A1
:101BD00000F02DFA019B1B7B0133DAB2019B1A73D3
:101BE000019B5B6800991846FFF76FFD0346002BC9
:101BF00002DC019B009A5A60019B1B68039303ABB4
:101C0000099303E0099B1B6808330993099B1B6830
:101C1000002B09D0099B1B685B6900991846FFF7E8
:101C200054FD0346002BEDDD099B1A68019B1A60E9
:101C3000019B1B68002B03D0019B1B68019A1A6152
:101C4000099B00221A60019B4833184600F0F8F9FE
:101C500003AB0893039B07931AE0079B0493049B31
:101C60009B68079300230693049B059307E0059B5D
:101C7000069A9A60059B0693059BDB680593059B76
:101C8000002BF4D1089B069A1A60049B0833089332
:101C9000079B002BE1D1039B18460BB05DF804FBBA
:101CA00000B589B0039002910192019B243B0793F8
:101CB00000F086F90690079B029A1A62079B5A6900
:101CC000069B1A44079B5A61069A07990398FFF7E7
:101CD000D9FE0590039B3433184600F0E7F9059BC5
:101CE000184609B05DF804FB30B58BB00190009147
:101CF00000F066F90990009B099A13440693019B32
:101D0000002283F8282009990198FFF75AFF0890CC
:101D10002EE0089B0493049B9B680893049B1B6A1A
:101D20000393039B002B05D0049B03F12402039B28
:101D300010469847049B9B69002B0FDB049B5B6953
:101D4000049A92691A44049B5A6100F039F90346D7
:101D50001A4604990198FFF795FE09E00499019845
:101D6000FFF7CEFC049B243319460198FFF771FE60
:101D7000089B002BCDD14FF0FF33079300F020F9E3
:101D80000990009B002B31DB09990698FFF79DFC19
:101D90000790079B002B29DC019BDB6A002B68D096
:101DA000019B4833184600F042F9019BDB6A002B87
:101DB00012D0019B1B68002B0ED0019BDC6A019B9B
:101DC0001D6B019B1B685B6909991846FFF786FC30
:101DD000034619462846A047019B012283F8282084
:101DE000019B4833184600F02BF942E0019B483331
:101DF000184600F01CF9019B1B68002B0DD0019BBD
:101E00001B685B6909991846FFF768FC0590059AFD
:101E1000079B9A4201D2059B0793019B48331846C2
:101E200000F00EF9019B34330799184600F04BF986
:101E3000019B9B68002B18D0019B4833184600F08B
:101E4000F6F8019B9B68002B0AD0019B9B685A1EE9
:101E5000019B9A60019B4833184600F0F1F809E0B5
:101E6000019B4833184600F0EBF800F0A9F8099000
:101E700049E700BF0BB030BD84B001900091019BD9
:101E8000243B0393009A039B5A6100BF04B0704740
:101E900084B001900091019B243B0393039B009A23
:101EA0009A6100BF04B0704784B001900091019B1B
:101EB000243B0393039B009ADA6100BF04B0704790
:101EC00000B583B00190019B1846FFF7D7FA01983F
:101ED00000F014F9064A019B1A60019B2833002187
:101EE0001846FEF70FFA019B184603B05DF804FB95
:101EF0003888020800B585B003900291CDE900232F
:101F0000039B283302991846FEF722FADDE90023E5
:101F10000398FFF782F900BF05B05DF804FB0000ED
:101F200008B50748FFF736FA0246064B1B6813440C
:101F3000044A13600248FFF77EFA00BF08BD00BFE5
:101F4000580B0020540B002010B586B017492020F4
:101F5000FEF7D1F904462046FFF7DCF90594144951
:101F60003820FEF7C8F904462046FFF7A9FF04947D
:101F7000104B00221A600598FFF7F0F96B460E49E6
:101F80001846FEF7BFF969464FF07A724FF000032A
:101F90000498FFF7AFFF6B461846FEF7C8F9074BEA
:101FA00001221A7000BF06B010BD00BF580B002000
:101FB000780B0020540B0020211F0008500B00203C
:101FC00000B583B0114B1B7883F00103DBB2002B0B
:101FD00001D0FFF7B9FF0E4B1B6801930D48FFF7C7
:101FE000D9F9034600930A4B1B68019A9A4214BF21
:101FF00001230023DBB2002B00D0ECE7019A009B09
:102000001344184603B05DF804FB00BF500B0020DA
:10201000540B0020580B002082B00190002318467A
:1020200002B0704782B0019000BF02B0704700B5A7
:1020300083B0019001F004FB00BF03B05DF804FB26
:1020400000B583B0019001F047FB00BF03B05DF81D
:1020500004FB00B587B0019002AB102200211846A6
:1020600019F0CCFE019B043304931023059302ABBB
:10207000184603F05FF80246019B1A60019B1B683B
:10208000002B02D14FF0FF3300E00023184607B0C9
:102090005DF804FB00B583B00190019B1B681846F6
:1020A00003F0F6F800BF03B05DF804FB00B583B0A1
:1020B0000190019B1B680121184603F079F800BFCD
:1020C00003B05DF804FB00B583B001900091009B64
:1020D000002B02DA4FF0FF330093019B1868009B3E
:1020E0000022012103F096F80346012B0CBF0123C7
:1020F0000023DBB2184603B05DF804FB82B0019008
:10210000019B184602B0704782B0019000BF02B038
:10211000704770B588B001900091019B5D68019B8C
:102120005B681B6808331C68019B1E6802AB009942
:10213000184600F015F902AB1A4631462846A0476A
:1021400003468DF81F309DF81F30002B02D09DF8FC
:102150001F3000E00023184608B070BD10B582B0F3
:102160000190019B002B17D11D4A019B52F823308F
:10217000002B0CD11C2001F021FF03461C460199C5
:10218000204600F033F8164A019B42F82340144AD7
:10219000019B52F8233020E0124B1B78BFF35B8F7A
:1021A000DBB203F00103002B0CBF01230023DBB2E1
:1021B000002B11D00B4801F0A3FE0346002B14BFE7
:1021C00001230023DBB2002B06D00121064800F0DA
:1021D0000DF8044801F0CAFE034B184602B010BDCA
:1021E000B00B0020D00B0020B40B002010B582B043
:1021F00001900091019B009A1A60019B00225A6095
:10220000019B08330021184600F0BDF8019B1B68B4
:10221000002B16D1019B1B680D4A52F82330002B6E
:1022200007D10C4A019B1C6890470346084A42F8B4
:102230002430019B1B68064A52F82320019B5A60F8
:1022400002E0019B00225A60019B184602B010BDBB
:10225000D40B002041E3000800B583B00190019B3E
:102260005B68002B02D1084801F07AFA019B5A689A
:10227000019B5B681B6818331B6810469847034630
:10228000184603B05DF804FB9C88020800B583B0D3
:102290000190019B5B68002B02D1084801F060FAB5
:1022A000019B5A68019B5B681B6820331B681046C2
:1022B00098470346184603B05DF804FB9C88020863
:1022C00000B583B00190019B5B68002B02D10848E8
:1022D00001F046FA019B5A68019B5B681B68383322
:1022E0001B681046984700BF03B05DF804FB00BFB1
:1022F0009C88020800B583B001900091019B0833CF
:102300000099184600F058F800BF03B05DF804FBD0
:1023100000B587B00190019B03F1080204AB1146A0
:10232000184600F05DF8049B002B06D1059B03F0D6
:102330000103002B01D1012300E0002383F00103FE
:10234000DBB2002B08D0019B0393019B083303AA47
:102350001146184600F062F800BF07B05DF804FBB4
:1023600082B001900091019B009A07CA83E80700A0
:10237000009BDA68019BDA60019B00221A61019BD5
:10238000184602B0704700B583B001900091019BE0
:102390001A460023136053609360019B0022DA60A9
:1023A000019B00221A610099019800F043F8019BFB
:1023B000184603B05DF804FB82B001900091019BC8
:1023C000009A07CA83E80700009BDA68019BDA607D
:1023D000019B00221A61019B184602B07047000061
:1023E00000B583B001900091009800F031F80346E9
:1023F000002B06D0019B084A1A60019B00225A60FC
:1024000005E0019B00221A60019B00225A6001989E
:1024100003B05DF804FB00BF0921000800B583B0DC
:10242000019000910099019800F022F800BF03B0DC
:102430005DF804FB82B001900091019B009A1A6044
:10244000019B024ADA6000BF02B070478B2400088B
:1024500082B00190019B1B68002B03D1019B1B687C
:10246000002B01D0012300E00023184602B0704782
:1024700000B583B001900091019BDB680099019841
:10248000984700BF03B05DF804FB00B583B001902E
:102490000091019B1B68002B03D0019B1B680098D7
:1024A000984700BF03B05DF804FB000082B00190C4
:1024B000034A019B1A60019B184602B0704700BF97
:1024C000C888020800B583B0019000910098FFF71A
:1024D00045FE03461846FFF71BFF00BF03B05DF83B
:1024E00004FB82B00190019B1B7803F00203DBB276
:1024F000002B14BF01230023DBB2184602B0704743
:1025000082B00190019B1B7803F00403DBB2002B27
:1025100014BF01230023DBB2184602B0704782B01B
:102520000190019B1B7803F00803DBB2002B14BF62
:1025300001230023DBB2184602B0704710B582B009
:1025400001900091142001F039FD03461C460099CA
:10255000204600F008F82146019800F017F80346DD
:10256000184602B010BD82B001900091019B009A04
:1025700007CA83E80700009BDA68019BDA60019BC9
:1025800000221A61019B184602B0704700B583B063
:1025900001900091019B5B68002B03D1019B009A85
:1025A0005A6008E0019B5B681946009800F031F81A
:1025B000019B009A5A60019B5B68184603B05DF866
:1025C00004FB82B00190019B1B69184602B0704762
:1025D00082B00190019B1B69184602B0704700B59C
:1025E00083B001900091019BDB68009901989847A6
:1025F00000BF03B05DF804FB00B583B0019000910B
:10260000019BDB6800990198984700BF03B05DF813
:1026100004FB82B001900091019B009A1A6100BFF7
:1026200002B0704782B00190019B4FF47A7202FBB6
:1026300003F3044AA2FB03235B0A9BB2184602B0D1
:10264000704700BF5917B7D100B585B00390084651
:1026500011461A460346ADF80A300B46ADF808306D
:102660001346ADF80630BDF80A301846FFF7DAFF1A
:1026700003461A46039B1A80BDF808301846FFF738
:10268000D1FF03461A46039B5A80039BBDF80620E0
:102690009A80039B9DF818209A71039B1B88032B3B
:1026A00002D8039B04221A80039B1B88B3F5804F3A
:1026B00003D9039B4FF480421A80039B5B88032B52
:1026C00002D8039B04225A80039B5B88B3F5804F9A
:1026D00003D9039B4FF480425A80039B184605B0F0
:1026E0005DF804FB00B585B001900B46ADF80230F3
:1026F000BDF802301846FFF795FF0346ADF80E30DF
:10270000BDF80E30032B0AD9BDF80E30B3F5804F5B
:1027100005D2019BBDF80E201A80002300E00323A0
:10272000184605B05DF804FB00B585B001900B4676
:10273000ADF80230BDF802301846FFF773FF0346CC
:10274000ADF80E30BDF80E30032B0AD9BDF80E30AF
:10275000B3F5804F05D2019BBDF80E205A800023AF
:1027600000E00323184605B05DF804FB82B0019039
:102770000B46ADF80230019BBDF802209A80002381
:10278000184602B0704782B001900B468DF80330B6
:10279000019B9DF803209A7100BF02B070470000B2
:1027A00000B583B00190019B1846FFF789FB0198A3
:1027B00000F00AF8034A019B1A60019B184603B017
:1027C0005DF804FB4C88020882B00190019B18461A
:1027D00002B0704782B001900091009B002B05D0A1
:1027E000019B9B68019A12681A6004E0019BDB68F8
:1027F000019A12681A6000BF02B0704700B583B03A
:1028000001900B46ADF8023013468DF80130BDF94A
:1028100002301946019809F077FCBDF90230B3F196
:10282000FF3F09D00021019809F0C7FC9DF8013055
:102830001946019809F0AEFC00BF03B05DF804FB37
:1028400000B585B0039001930B46ADF80A301346EE
:102850008DF80930BDF90A301946039809F054FC87
:10286000BDF90A30B3F1FF3F0DD001990398FFF78E
:10287000B1FF0121039809F0A0FC9DF80930194629
:10288000039809F087FC00BF05B05DF804FB00B5B4
:1028900083B001900B46ADF80230BDF90230002242
:1028A0001946019800F004F800BF03B05DF804FB7E
:1028B00000B583B001900B46ADF8023013468DF899
:1028C00001309DF80120BDF9023019460198FFF74B
:1028D00095FF00BF03B05DF804FB00B583B0019025
:1028E0000B46ADF80230BDF90230002219460198BE
:1028F00000F004F800BF03B05DF804FB00B585B03C
:1029000003900B460192ADF80A30BDF90A10019B05
:1029100000220398FFF794FF00BF05B05DF804FBA9
:1029200000B583B003460091ADF80630BDF906301E
:10293000B3F1FF3F23D018E0009BB3F90030BDF99D
:1029400006209A420ED1009B9A68BDF906301146C6
:1029500018460AF0F5F9BDF90630002118460AF0CC
:102960008BFA0DE0009B0C330093009BB3F9003011
:10297000B3F1FF3FE0D1044800F0F2FE00E000BFF9
:1029800003B05DF804FB00BF0489020800B583B002
:1029900001900091019A009B9A4201D1019B10E0A5
:1029A000019BB3F1FF3F01D1009B0AE0009BB3F113
:1029B000FF3F01D1019B04E0044800F0D1FE4FF03D
:1029C000FF33184603B05DF804FB00BF1889020806
:1029D00082B003460091ADF806300CE0009BB3F9DD
:1029E0000030BDF906209A4202D1009B5B680AE0E4
:1029F000009B0C330093009BB3F90030B3F1FF3F11
:102A0000ECD14FF0FF33184602B0704700B585B0E7
:102A100003460091ADF806304FF0FF330393BDF944
:102A20000630B3F1FF3F02D14FF0FF330EE0BDF9A6
:102A3000063000991846FFF7CBFF0390039BB3F1D4
:102A4000FF3F02D1034800F08BFE039B184605B000
:102A50005DF804FB2C89020800B583B00190019B4E
:102A60005B681B7C002B1ED1019B1B681B68984771
:102A7000019B5B6800221A60019B5B6800225A6020
:102A8000019B59684FF000024FF00003C1E9022397
:102A9000019B5B6801221A74019800F047F80198C5
:102AA00000F05DF800E000BF03B05DF804FB82B009
:102AB00001900091019B5B68009A1A6000BF02B010
:102AC00070472DE9F00388B0CDE902010192029B25
:102AD000019A9A4234BF012300238DF81730DDE9B3
:102AE00002234FF000004FF0FF3102EA000403EA36
:102AF0000105019B1A464FF0000344EA020845EA2B
:102B00000309CDE906899DF81730002B06D0DDE9D1
:102B10000623161C43F10107CDE90667DDE906230C
:102B20001046194608B0BDE8F003704770B582B092
:102B30000190019B5B68D3E90245019B1B685B68C0
:102B400098470246019B5E6820462946FFF7B9FF79
:102B500002460B46C6E9022300BF02B070BD30B585
:102B600089B001900198FFF7E1FF4FF0E043079330
:102B7000019B5B685B68002B2AD0019B5B68D3E9F3
:102B80000223CDE90423019B5B685B68D3E9002342
:102B9000CDE90223DDE90201DDE90423994208BF02
:102BA000904202D20023079312E0DDE90201DDE941
:102BB0000423841A61EB03056FF010424FF0000309
:102BC000AB4208BFA24203D3029A049BD31A0793D5
:102BD000019B1B681969019B5B68D3E90223079B72
:102BE00013441846884700BF09B030BD00B583B014
:102BF000019000910198FFF72FFF00990198FFF7CE
:102C000056FF00BF03B05DF804FB00B585B001902E
:102C1000019B1B68DB689847019B5B685B68002B26
:102C200027D00198FFF782FF019B5B685B68D3E9BF
:102C3000002301994968D1E90201994208BF9042F5
:102C400019D3019B5B685B680393019B5B685A68BF
:102C5000019B5B68D2685A60019B5B681B68002B14
:102C6000DAD0019B5B681B68039A9268104698470C
:102C7000D2E700BF00E000BF0198FFF770FF00BF80
:102C800005B05DF804FB00B587B003900291CDE973
:102C9000002300F0D5FC0398FFF748FF0299DDE917
:102CA0000023C1E90023029B089A9A600023059340
:102CB000039B5B685B6804930DE0049BD3E90023EE
:102CC000DDE90001994208BF904208D3049B0593B7
:102CD000049BDB680493049B002BEED100E000BF53
:102CE000029B049ADA60059B002B04D1039B5B686E
:102CF000029A5A6002E0059B029ADA600398FFF795
:102D00002EFF00F0E9FC00BF07B05DF804FB00B542
:102D100085B00190009100F093FC019B5B685B68BB
:102D2000009A9A4208D1019B5B68009AD2685A6067
:102D30000198FFF714FF14E0019B5B685B68039345
:102D40000CE0039BDB68009A9A4204D1009BDA688E
:102D5000039BDA6005E0039BDB680393039B002B76
:102D6000EFD100F0B9FC00BF05B05DF804FB00B581
:102D700083B001900198FFF7D9FE019B5B68D3E90E
:102D800002231046194603B05DF804FB014B1846B8
:102D9000704700BF8089020808B50248FFF735FF79
:102DA00000BF08BD8089020800B585B0039002917C
:102DB00013468DF80730039800F0E9F8174A039B93
:102DC0001A60039B00225A60039B029A9A60039B3D
:102DD0009DF807201A731248FDF784FB03464FF055
:102DE000FF31184601F0A4FA029B002B07D00D4BCF
:102DF0001A68039B5A600B4A039B136002E0039B13
:102E000000225A600648FDF76DFB0346184601F0A4
:102E10009EFA039B184605B05DF804FB90890208F2
:102E2000F40B0020F00B002000B585B00190244A7F
:102E3000019B1A602348FDF755FB03464FF0FF3115
:102E4000184601F075FA019B9B68002B19D01E4BA8
:102E50001B68019A9A4204D1019B5B681A4A13606D
:102E60000FE0194B1B680393039B5B68019A9A421E
:102E700003D0039B5B680393F6E7019B5A68039BAF
:102E80005A601048FDF72EFB0346184601F05FFA22
:102E9000019800F075F80346002B0CBF01230023B6
:102EA000DBB2002B04D0019B043B184600F08AFCE7
:102EB000019800F072F8019B184605B05DF804FB1C
:102EC00090890208F40B0020F00B002000B583B0BD
:102ED00001900198FFF7A8FF019801F09BF8019B72
:102EE000184603B05DF804FB00B585B00190009171
:102EF0002148FDF7F7FA03464FF0FF31184601F07D
:102F000017FA1E4B1B680393039B002B28D0039BCF
:102F10009B68002B14D0039B9B68009A019918466C
:102F200019F05CFE0346002B0AD1039B9B681846F0
:102F300019F0E6FD0246009B934201D1012300E017
:102F40000023002B08D00C48FDF7CCFA03461846A6
:102F500001F0FDF9039B0BE0039B5B680393D3E750
:102F60000548FDF7BFFA0346184601F0F0F90023C3
:102F7000184605B05DF804FBF40B0020F00B0020B0
:102F800082B00190019B1B7B184602B0704782B053
:102F90000190019B184602B0704782B00190019BDE
:102FA000184602B0704782B001900023184602B064
:102FB000704782B001900023184602B0704700B5F8
:102FC00085B00190019B1B6810331B680122002112
:102FD000019898470390039B002B01DA039B11E0B3
:102FE000019B1B6810331B6802220021019898473F
:102FF0000290019B1B6810331B6800220399019803
:103000009847029B184605B05DF804FB00B583B0F5
:10301000019000910099019800F032FF0346184694
:1030200003B05DF804FB00B587B001900091019BEF
:1030300000221A60019B00225A60009B1B782F2BF4
:1030400032D1009B01331B78002B2DD0009B013324
:103050000493019B049A1A6000230593019B1B684B
:103060001B788DF80F309DF80F302F2B05D1019B69
:103070001B685A1C019B1A600DE09DF80F30002B55
:1030800008D0059B01330593019B1B685A1C019BCB
:103090001A60E3E700BF059B19460498FFF724FF79
:1030A0000246019B5A6000E000BF019B184607B032
:1030B0005DF804FB82B00190019B1B68184602B0CA
:1030C000704700B583B00190019B5B68002B01D174
:1030D00000230AE0019B5B681846FFF751FF034697
:1030E000012B0CBF01230023DBB2184603B05DF8AF
:1030F00004FB00B583B001900198FFF7E2FF03469F
:10310000002B09D0019B5B68002B03D0019B5B68FF
:10311000043B02E0002300E00023184603B05DF802
:1031200004FB00B583B00190019B5B68002B01D1CB
:1031300000230AE0019B5B681846FFF721FF034666
:10314000002B0CBF01230023DBB2184603B05DF84F
:1031500004FB00B583B001900198FFF7E2FF03463E
:10316000002B09D0019B5B68002B03D0019B5B689F
:10317000043B02E0002300E00023184603B05DF8A2
:1031800004FB82B00190019B5B68002B14BF0123FC
:103190000023DBB2184602B07047000000B583B0D0
:1031A00001900091019B1846FEF724FA019B04331D
:1031B000002200991846FFF7F7FD019800F066F924
:1031C000054A019B1A60054A019B5A60019B1846FB
:1031D00003B05DF804FB00BF7C8A0208C88A0208BD
:1031E00000B583B001900B4A019B1A600A4A019B0B
:1031F0005A60019800F050F9019B04331846FFF71C
:1032000013FE019B1846FEF7B7F9019B184603B061
:103210005DF804FB7C8A0208C88A0208A0F1040059
:10322000DEE700BF00B583B001900198FFF7D8FF3B
:10323000019800F0EFFE019B184603B05DF804FB17
:10324000A0F10400EEE782B0019000BF02B0704729
:1032500082B0019000BF02B07047000000B583B09B
:1032600001900091019B00991846FFF797FF019884
:1032700000F018F9134A019B1A60134A019B5A6027
:10328000019B00225A61019B10491846FFF7BEFEC0
:103290000246019B5A61019B5B69002B05D0019B93
:1032A0005B69184600F0E0FD07E017F02BF90346D4
:1032B0001B681946064800F053FA019B184603B0F4
:1032C0005DF804FB108A02086C8A0208E48902088F
:1032D000E889020800B583B001900B4A019B1A608F
:1032E0000A4A019B5A60019B5B69184617F076F900
:1032F000019800F0DDF8019B1846FFF771FF019B74
:10330000184603B05DF804FB108A02086C8A0208B4
:1033100082B001900023184602B0704700B587B014
:10332000039002910192029B0593059A019B13441D
:103330000493039B1B684C331B6803989847059ABA
:10334000049B9A4215D0039B1B6844331A68059B63
:10335000591C05911B781946039890470346B3F111
:10336000FF3F0CBF01230023DBB2002B00D1E6E7B7
:1033700000BF039B1B6850331B6803989847059A4E
:10338000029BD31A184607B05DF804FB00B589B05C
:10339000039002910192029B0793079A019B1344A9
:1033A0000693039B1B684C331B6803989847079A46
:1033B000069B9A4212D0039B1B6848331B680398F4
:1033C00098470590059BB3F1FF3F06D0079B5A1C19
:1033D0000792059AD2B21A70E9E700BF039B1B68F7
:1033E00050331B6803989847079A029BD31A1846D4
:1033F00009B05DF804FB84B00390029101920023B0
:10340000184604B0704782B001900023184602B0FD
:10341000704782B0019000BF02B0704782B0019047
:103420000023184602B0704782B00190002318466E
:1034300002B0704782B001900023184602B0704776
:103440000EB400B584B00190019B1B684C331B681F
:103450000198984706AB0293019B5B69184617F0E9
:103460008BF9019B5B69029A059918461FF0E6FAF1
:103470000390019B1B6850331B6801989847039B7E
:10348000184604B05DF804EB03B0704782B00190B9
:10349000019B184602B0704782B00190019B18460C
:1034A00002B0704782B00190019B184602B070478D
:1034B00082B00190019B184602B0704700B585B0FC
:1034C00001900091002303930099019818F056F899
:1034D0000390039B184605B05DF804FB00B587B068
:1034E00003900291019200230593019A0299039897
:1034F00018F0EAFC0590059B184607B05DF804FB40
:1035000000B583B0019000910099019817F0DEFAA0
:1035100000BF03B05DF804FB00B587B003900291D3
:10352000019200230593019A0299039816F0BAFFBD
:103530000590059B184607B05DF804FB00B585B003
:1035400003900291019200F07BF8019B029A03998B
:10355000044800F013F800F007F800BF05B05DF86C
:1035600004FB00BFD08A020808B500F069F8962075
:1035700000F04AFE962000F047FEF8E70FB400B5D1
:1035800083B005AB01930199049800F007F800BFE0
:1035900003B05DF804EB04B07047000000B5A5B0BF
:1035A0000190009100F04CF802A8009B019A802144
:1035B0001FF0CAFA2290229B002B1ADD104B1B68C9
:1035C000002B04D1172216210E4808F055F90023CC
:1035D00023930AE002AA239B13441B781946094847
:1035E00008F0EEFA239B01332393239A229B9A42FD
:1035F000F0DB00F071F800BF25B05DF804FB00BF00
:10360000181300208850002082B0EFF3108301933C
:10361000019B03F00103002B0CBF01230023DBB24D
:10362000184602B0704782B0EFF305830193019B07
:10363000002B14BF01230023DBB2184602B07047F1
:1036400000B583B0FFF7E0FF0346002B14BF012352
:103650000023DBB283F00103DBB28DF807309DF865
:10366000073003F001038DF8073072B600BF154B29
:103670001B68002B03D1144A9DF807301370114BBF
:103680001B68B3F1FF3F04D1452210491048FFF7F2
:1036900055FF0C4B1B68002B0BD09DF8073083F0B7
:1036A0000103DBB2002B04D0492208490948FFF787
:1036B00045FF044B1B680133024A136000BF03B08F
:1036C0005DF804FB280C00202C0C0020048B020861
:1036D000288B0208508B020800B583B01C4B1B6876
:1036E000002B31D0FFF790FF0346002B14BF0123BE
:1036F0000023DBB283F00103DBB28DF807309DF8C5
:10370000073003F001038DF807309DF8073083F090
:103710000103DBB2002B04D05A220E490E48FFF7FA
:103720000DFF0B4B1B68013B094A1360084B1B68DC
:10373000002B09D1094B1B78DBB283F00103DBB20C
:10374000002B01D062B600BF00BF03B05DF804FBE0
:10375000280C0020048B0208508B02082C0C00203F
:103760000FB400B583B00B4B1B78002B0BD1094B6A
:1037700001221A7005AB019301990498FFF70EFF1F
:10378000012000F061FB00BF03B05DF804EB04B062
:10379000704700BF2D0C002008B5044B1B684FF08C
:1037A000FF31184603F050FD00BF08BD0050002057
:1037B00008B5034B1B68184603F07AFD00BF08BD2F
:1037C0000050002000B585B001901448FCF78AFE37
:1037D00003464FF0FF31184600F0AAFD0023039383
:1037E000039B3F2B0FD80E4A039B52F82330019ABC
:1037F0009A4204D10A4A039B002142F82310039BFA
:1038000001330393ECE70548FCF76CFE03461846CA
:1038100000F09DFD00BF05B05DF804FB380D0020F1
:10382000380C002008B5084B1B68002B0AD1172262
:103830001621064808F020F84FF41651034808F006
:103840006DF900E000BF08BD18130020885000206B
:1038500000B583B00190009116F054FE0246019B22
:103860005B421360054A009B002142F823104FF091
:10387000FF33184603B05DF804FB00BF380C00208E
:1038800084B00190019B0393039B23F48033039343
:10389000039B184604B0704710B58AB001900091A0
:1038A0006749019818F0B0FF0346002B0CBF0123B5
:1038B0000023DBB2002B03D0FFF7B4FF0023BBE0F3
:1038C0006049019818F0A0FF0346002B0CBF0123AC
:1038D0000023DBB2002B03D0FFF7A4FF0123ABE0F2
:1038E0005949019818F090FF0346002B0CBF0123A3
:1038F0000023DBB2002B03D0FFF794FF02239BE0F1
:103900005248FCF7EFFD03464FF0FF31184600F038
:103910000FFD00230993099B3F2B0AD84C4A099BB2
:1039200052F82330002B03D0099B01330993F2E7AF
:1039300000BF099B3F2B0ED916F0E4FD0346182269
:103940001A604248FCF7CEFD0346184600F0FFFC23
:103950004FF0FF3370E03E4A099B4FF0FF3142F8D1
:1039600023103A48FCF7BEFD0346184600F0EFFC72
:1039700000230593019B1B783A2B08D104AB1A4610
:103980003449019818F0C0FE049B05934DE002AB4A
:1039900001991846FFF747FB02AB1846FFF7F1FB0A
:1039A000034683F00103DBB2002B06D009996FF0C8
:1039B0000100FFF74DFF03463EE002AB1846FFF75C
:1039C000B0FB0346002B06D002AB1846FFF7C1FB45
:1039D0000346059329E002AB1846FFF78AFB0890DF
:1039E000089B002B06D109996FF00100FFF730FF0B
:1039F000034621E00098FFF743FF0790089B1B68F0
:103A000008331C6802AB1846FFF754FB024605A9B1
:103A1000079B0898A0470690069B002B05D00999A4
:103A20000698FFF715FF034606E0059A0849099B2B
:103A300041F82320099B033318460AB010BD00BF8C
:103A4000648B02086C8B0208748B0208380D00200E
:103A5000380C00207C8B020800B585B00190019BDA
:103A6000022B01DC00232AE0019B033B164A52F89B
:103A700023300393019B033B134A002142F8231098
:103A8000039B002B07D116F03DFD034609221A6067
:103A90004FF0FF3313E0039B1B6814331B6803983C
:103AA00098470290029B002B08DA16F02BFD024685
:103AB000029B5B4213604FF0FF3300E00023184687
:103AC00005B05DF804FB00BF380C002000B589B0DC
:103AD0000390029101920093FFF7A5FD0346002B8E
:103AE00007D1FFF791FD034683F00103DBB2002B02
:103AF00001D0012300E00023002B02D02448FFF76F
:103B00002FFE039B022B1ADC224B1B68002B01D1DA
:103B1000FFF788FE00230693069A019B9A420BD278
:103B2000029A069B13441B7819461B4808F048F874
:103B3000069B01330693EFE7019B079322E0039B6B
:103B4000033B164A52F823300593059B002B07D1FF
:103B500016F0D8FC034609221A604FF0FF3312E03A
:103B6000059B1B680C331B68019A029905989847BE
:103B70000790079B002B05DA16F0C4FC0246079B52
:103B80005B421360079B184609B05DF804FB00BF59
:103B9000808B02081813002088500020380C002069
:103BA00000B587B00390029101920093FFF73BFDAF
:103BB0000346002B07D1FFF727FD034683F00103DF
:103BC000DBB2002B01D0012300E00023002B02D048
:103BD0001E48FFF7C5FD039B022B0FDC1C4B1B6827
:103BE000002B01D1FFF71EFE1A4807F0BDFF034668
:103BF000DAB2029B1A700123059322E0039B033B78
:103C0000154A52F823300493049B002B07D116F079
:103C100079FC034609221A604FF0FF3312E0049B3F
:103C20001B6808331B68019A02990498984705900D
:103C3000059B002B05DA16F065FC0246059B5B42EE
:103C40001360059B184607B05DF804FBBC8B0208A7
:103C50001813002088500020380C002000B585B0D3
:103C60000190019B022B01DC012322E0019B033B1D
:103C7000124A52F823300393039B002B06D116F00F
:103C800041FC034609221A60002312E0039B1B68D3
:103C90001C331B68039898470290029B002B07DA9D
:103CA00016F030FC0246029B5B421360002300E0EA
:103CB000029B184605B05DF804FB00BF380C0020DD
:103CC00000B587B0039002910192039B022B07DCA1
:103CD00016F018FC03461D221A604FF0FF3326E051
:103CE000039B033B144A52F823300593059B002B9A
:103CF00007D116F007FC034609221A604FF0FF3384
:103D000015E0059B1B6810331B68019A0299059802
:103D100098470490049B002B08DA16F0F3FB024648
:103D2000049B5B4213604FF0FF3300E0049B184696
:103D300007B05DF804FB00BF380C002000B583B06D
:103D400001900091019B022B05DC009B4FF4005277
:103D50005A60002306E016F0D5FB034609221A60DC
:103D60004FF0FF33184603B05DF804FB08B5024876
:103D7000FFF7F6FC00BF08BDF88B020808B501206C
:103D800000F062F810B485B001901B4B1B680393E0
:103D9000194B1A68019B13440293EFF308831C46E6
:103DA00023461A46029B93422CBF01230023DBB219
:103DB000002B05D0114B0C221A604FF0FF3315E099
:103DC0000F4B1B68002B0DD00E4B1A680C4B1B6859
:103DD0001344029A9A4205D3084B0C221A604FF002
:103DE000FF3303E0044A029B1360039B184605B0AF
:103DF0005DF8044B704700BF04000020BC53002056
:103E0000340C0020300C002000B583B00190094B29
:103E10001B689B68184616F0AFFC064B1B68DB68F6
:103E2000184616F0A9FC019B002B01D0FFF79CFB64
:103E3000FEE700BFD400002084B0039002910192FD
:103E40000123184604B0704700B583B00190019873
:103E5000FFF7DAFF00BF03B05DF804FB82B001900A
:103E60000123184602B0704700B583B001900021CD
:103E7000019818F0BFFA00BF03B05DF804FB000022
:103E800000B587B00190009102AB019A1149184624
:103E900018F018FC02AB0099184616F0BFFD05900B
:103EA000059B002B0AD0019B1B681C331B680198E3
:103EB00098470346002B01D0012300E00023002B8C
:103EC00002D00598FFF7D0FF059B184607B05DF8B4
:103ED00004FB00BF7C8B020800B583B00190019801
:103EE00000F052FD00BF03B05DF804FB00B583B0E5
:103EF0000190019800F058FD00BF03B05DF804FB8D
:103F000000B585B00190019B0393039B1B7803F0E0
:103F10000303012B01D100231FE0FFF73DFC039BAE
:103F20001B7803F00303012B03D1FFF741FC0023AF
:103F300013E0039B1B7803F00303002B05D04FF421
:103F4000687208490848FFF7F9FA039B1B7843F0A9
:103F50000203DAB2039B1A700123184605B05DF81C
:103F600004FB00BF048C02082C8C020800B585B04D
:103F70000190019B0393039B1B7803F00303022B27
:103F800005D04FF46A720B490B48FFF7D7FA039B31
:103F90001B785BB223F003035BB243F001035BB217
:103FA000DAB2039B1A70FFF703FC00BF05B05DF89F
:103FB00004FB00BF048C0208548C020800B585B0D5
:103FC0000190019817F0CAFA03460393039B002B54
:103FD00002D10448FFF7C4FB039B184605B05DF807
:103FE00004FB00BF948C020800B585B001900198D5
:103FF00017F0B4FA03460393039B002B02D1044845
:10400000FFF7AEFB039B184605B05DF804FB00BF4D
:10401000B48C020800B583B00190019B002B02D044
:10402000019817F0A3FA00BF03B05DF804FB00B5D8
:1040300083B00190019B002B02D0019817F096FAF3
:1040400000BF03B05DF804FB82B00190019B063312
:10405000052B1BD801A252F823F000BF89400008AD
:1040600085400008814000087D4000087940000834
:1040700075400008074B0AE0074B08E0074B06E0D5
:10408000074B04E0074B02E0074B00E0074B1846E4
:1040900002B07047D48C0208EC8C0208208D020814
:1040A000388D0208488D0208608D02087C8D020858
:1040B00000B583B001900198FFF7C6FF03461A468A
:1040C00001990348FFF74CFB00BF03B05DF804FB08
:1040D000848D020800B583B0019000910098FFF72D
:1040E000B3FF0346009A01990348FFF739FB00BF6D
:1040F00003B05DF804FB00BF9C8D020800B583B0DF
:10410000019000910098FFF79FFF0346009A0199E4
:104110000348FFF725FB00BF03B05DF804FB00BFB9
:10412000D08D020800B583B0019000910098FFF790
:104130008BFF0346009A01990348FFF711FB00BF6C
:1041400003B05DF804FB00BFE88D020800B583B042
:1041500001900091009B13F1110F05D0009A019975
:104160000348FFF7FDFA00E000BF03B05DF804FB71
:10417000008E020800B583B001900091009A019969
:104180000348FFF7EDFA00BF03B05DF804FB00BF82
:10419000348E020800B583B00E48FCF7A3F903463D
:1041A0004FF0FF31184600F0C3F809F04BFA0190C8
:1041B000019B094AA2FB03235B0B01930548FCF713
:1041C00091F90346184600F0C2F8019B184603B067
:1041D0005DF804FB6C0D00205917B7D100B583B012
:1041E0000190DDED017A9FED077A67EE877AFDEEAB
:1041F000E77A17EE900A00F017F800BF03B05DF8F9
:1042000004FB00BF0024744900B583B00190019BFA
:104210004FF47A7202FB03F3184600F005F800BF72
:1042200003B05DF804FB000000B585B0019009F013
:1042300009FA0390019B154A82FB03129211DB17C6
:10424000D31A0293029B002B06DDFFF7DDF903462C
:10425000002B01D0012300E00023002B03D0029BA0
:10426000184600F022FA09F0EDF90246039BD21A33
:10427000019B9A4234BF01230023DBB2002B00D004
:10428000F1E700BF05B05DF804FB00BFD34D62103D
:1042900000B583B00190019800F076F800210198F4
:1042A00000F006F8019B184603B05DF804FB00001F
:1042B00000B583B001900091019B14331C220021B2
:1042C000184617F09BFD019B04331022002118466D
:1042D00017F094FD009B002B01D0009B00E0114BD8
:1042E000019A5360019B03F11402019BDA60019B68
:1042F0001C221A61019B0B229A60019B0433184611
:1043000002F064FF0246019B1A60019B1B68002BB0
:1043100004D1312204490548FFF710F900BF03B06A
:104320005DF804FB8C8E0208A88E0208C48E020879
:1043300000B583B001900091019B1B68009918465D
:1043400002F082FF0346184603B05DF804FB00B597
:1043500083B00190019B1B68184602F0A9FF034639
:10436000184603B05DF804FB00B583B00190019BD3
:104370001B68184602F0CCFF019800F00BF8019B77
:10438000184603B05DF804FB82B00190019B18460B
:1043900002B0704782B00190019B184602B070478E
:1043A00000B583B001900091019800F062F84FF6DB
:1043B000FF720099019800F005F8019B184603B0C0
:1043C0005DF804FB00B585B0039002911346ADF88B
:1043D0000630039B143310220021184617F00EFDFF
:1043E000039B043310220021184617F007FD039B9E
:1043F00003F11402039BDA60039B10221A61BDF8DB
:1044000006000299039B04331A4603F0ABF90246F7
:10441000039B1A60039B1B68002B04D12B220449C9
:104420000448FFF78BF800BF05B05DF804FB00BF40
:10443000C88E0208E88E020800B583B00190019B87
:104440001B68184603F0D6F90346184603B05DF81A
:1044500004FB00B583B00190019B1B68184603F074
:10446000F5F9019800F00BF8019B184603B05DF8D0
:1044700004FB82B00190019B184602B0704782B0E5
:104480000190019B184602B07047000000B585B04E
:104490000390029101920093039B00225A61009BBA
:1044A000002B0CBF01230023DAB2039B83F83C20CE
:1044B000039B002283F8DC20039B943348220021D5
:1044C000184617F09BFC039B183324220021184642
:1044D00017F094FC039B029A1A63039B019ADA6219
:1044E000069B002B01D0069B00E0054B039A9361CD
:1044F000039B009A9A6200BF05B05DF804FB00BF01
:10450000F48E020800B585B001900091019B6433E0
:104510004FF0FF311846FFF70BFF019B5B69002B43
:1045200004D1019B93F8DC30002B07D0019B64334E
:104530001846FFF70CFF6FF0030378E0019B9B6ABE
:10454000002B1AD1019BDB6A9B086FF060429342FB
:1045500001D29B0001E04FF0FF331846FFF744FD06
:1045600003461A46019B9A62019B9B6A002B04D169
:104570004E2231493148FEF7E1FF00230393019BAE
:10458000DB6A9B08039A9A420AD2019B9A6A039BB0
:104590009B0013442A4A1A60039B01330393EEE7FE
:1045A000019B943348220021184617F027FC019BF9
:1045B00048225A62019B03F19402019B1A62019BFB
:1045C000043300991846FBF7C3FE019B18331A46C3
:1045D00001991C4804F086FA0246019B5A61019B2E
:1045E0005B69002B1DD1019B93F83C30002B0BD055
:1045F000019B9B6A002B04D0019B9B6A1846FFF726
:1046000016FD019B00229A62019B64331846FFF756
:104610009EFE019B40331846FFF70EFF6FF002032A
:1046200005E0019B64331846FFF791FE002318460E
:1046300005B05DF804FB00BF688F0208848F020894
:10464000A52E5AE24547000800B585B00190002329
:104650000393019B64334FF0FF311846FFF768FE68
:10466000019B5B690293019B40331846FFF7E4FE10
:10467000019B00225A61019B93F8DC3083F0010317
:10468000DBB2002B07D0019B012283F8DC200298CB
:1046900004F0E4FA0390019B64331846FFF757FED9
:1046A000039B184605B05DF804FB00B583B001908C
:1046B000019800F00BFA0346184603B05DF804FBBE
:1046C00000B583B00190174A019B1A600198FFF76B
:1046D000BBFF019B93F83C30002B0BD0019B9B6AE6
:1046E000002B04D0019B9B6A1846FFF7A0FC019B9E
:1046F00000229A62019B64331846FFF735FE019B46
:1047000040331846FFF7A5FE019B04331846FBF71C
:104710000EFE019800F037F8019B184603B05DF8D3
:1047200004FB00BFE08F020800B583B00190019840
:10473000FFF7C6FF0198FFF76DFC019B184603B019
:104740005DF804FB00B585B00190019B0393039BCA
:1047500004331846FCF798F8039B64334FF0FF319D
:104760001846FFF7E5FD039B00225A61039B0122D7
:1047700083F8DC20039B40331846FFF75DFE00BF43
:1047800005B05DF804FB82B00190019B184602B0B1
:104790007047000082B0134B0193124BC3F10053DA
:1047A00003F5C0330093009BB3F5806F28BF4FF42F
:1047B00080630D4A13600C4B1B68009AD31A019A50
:1047C00013440A4A1360084B1B68009AD31A0093DB
:1047D000074A009B1360074A019B136000BF02B0A9
:1047E000704700BFC0530020A40D0020A00D002082
:1047F000340C0020300C002084B0104B9B680293D6
:104800004FF080530193002303930CE0039B9B0024
:10481000029A1A44039B9B0001990B4412681A6088
:10482000039B01330393039B612BEFDD034B4FF09D
:1048300080529A6000BF04B0704700BF00ED00E0F6
:1048400000BF704700B583B0124B134A1A61114B79
:104850004FF480525A610F4B4822DA600D4B0F4AD9
:104860009A600C4B18229A610A4B0D4A1A60094A49
:1048700000210C4804F036F90190019B002B02D175
:104880000948FEF76DFF01F08BF900BF03B05DF83A
:1048900004FB00BF4C500020D03F0020803F002090
:1048A000E88F0208BD480008F48F020808B5FFF73A
:1048B000C7FF14F0C3F90346184608BD08B51F4BDF
:1048C0001F4A1A601D4B0B225A601C4B1C22DA60D7
:1048D0001A4B1C4A9A60194802F078FC03461A4A9F
:1048E00013601A4B1A4A1A60184B0B225A60174B66
:1048F0001C22DA60154B174A9A60144802F066FCD5
:104900000346154A1360154B154A1A60134B0B22C8
:104910005A60124B1C22DA60104B124A9A600F4800
:1049200002F054FC0346104A136016F071FD00219A
:104930000020FFF7BBFF00BF08BD00BF3C500020B8
:10494000109002080450002000500020F04F00207A
:104950002090020820500020C83F00207050002006
:1049600030900208D44F0020D04F002008B5FFF748
:1049700011FFFFF741FF08F071F801F0A7F8FFF70A
:1049800061FF00BF08BD000000B583B00190054B7A
:104990001B684FF0FF31184602F056FC00BF03B011
:1049A0005DF804FBC83F002000B583B00190044BC4
:1049B0001B68184602F07CFC00BF03B05DF804FBE6
:1049C000C83F002000BF704708B5FFF7FBFF00BFDE
:1049D00008BD000008B5024B1B689847FBE700BF05
:1049E00008000020EFF30980816911F8021CB9BBAF
:1049F00001B590E80F10E047BDE800508CE80300D7
:104A0000264B93E80600914208BF704741B91EF05B
:104A1000100F10D12249086820F0010008600AE058
:104A20002CE9F00F1EF0100F08BF2CED108AC1F812
:104A300038C081F822E003F0E5FB184B93E806004C
:104A40001A6092F82210906B61F0FF0E1EF0100FAA
:104A500008BFB0EC108AB0E8F00F80F30988704707
:104A600010B5104A1368994206D852F821400FC871
:104A7000A047EFF30984206010BD10B503F058F88B
:104A8000BDE81040EFF3098CBAE710B502F0ECFF77
:104A9000BDE81040EFF3098CB2E700002C000020C5
:104AA00034EF00E04891020800B583B00190019B0B
:104AB000002B01D1002304E00199132003F02AFC0C
:104AC0000023184603B05DF804FB000000B587B072
:104AD0000190019800F086FCEFF305830593059B98
:104AE000002B0BD1EFF310830493049B002B05D113
:104AF000EFF311830393039B002B07D06FF00501A5
:104B00000020FFF7E7FA6FF0050307E0019B02932F
:104B10000298044B9C4600DF034600BF184607B0CE
:104B20005DF804FBA94A000810B483B0019000911D
:104B3000019B009A53E8000F40EA020143E8001489
:104B400004B1F7E70C462346184603B05DF8044B62
:104B5000704710B483B001900091019B009A53E814
:104B6000001F01EA0200904203D0BFF32F8F002103
:104B700005E021EA020043E8000404B1EFE70C4637
:104B80002346184603B05DF8044B704710B483B059
:104B900001900091019B009A53E8001F114203D13C
:104BA000BFF32F8F002105E021EA020043E8000453
:104BB00004B1F1E70C462346184603B05DF8044BF8
:104BC00070470000014BDB69184670471000002059
:104BD00000B585B001900091019B0C3300991846F7
:104BE000FFF7A2FF0390039B184605B05DF804FB96
:104BF00000B587B0039002910192019B03F002037C
:104C0000002B14D1019B03F00103002B07D0039B61
:104C10000C3302991846FFF79CFF059021E0039B97
:104C20000C3302991846FFF7B1FF059019E0039B7A
:104C3000DB680593019B03F00103002B05D0059A67
:104C4000029B1340029A9A4209D1019B03F001038F
:104C5000002B06D1059A029B1340002B01D10023A3
:104C60000593059B184607B05DF804FB00B587B0B7
:104C70000190019B5B78002B2BD0019B9B680593D7
:104C800023E0059B9B680493059B596A059B93F859
:104C900023301A460198FFF7ABFF0390039B002BCC
:104CA00011D0059803F0CCF800220399059803F081
:104CB0000DFB059B596A059B93F823301A46039B0D
:104CC000019800F0C7FB049B0593059B002BD8D1EE
:104CD00000E000BF07B05DF804FB000000B587B03E
:104CE0000190019B002B23D0019B1B680393019B28
:104CF0009B680593059B002B0FD0059B03F00303D6
:104D0000002B03D1019BDB680F2B15D86FF0080136
:104D10000020FFF7F3F9002352E0019BDB68002B32
:104D20000AD06FF008010020FFF7E8F9002347E000
:104D30000023039300230593059B002B23D1224BD3
:104D4000D3F89830002B07D01F4BD3F89830184673
:104D500001F019F9059008E01B4BD3F888300122C7
:104D60001021184600F0A6FF0590059B002B06D1E8
:104D70006FF004010020FFF7C1F9002320E00123B8
:104D80008DF8133002E000238DF81330059B0322C9
:104D90001A70059B01225A70059B9DF813209A708A
:104DA000059B039A5A60059B00229A60059B00228E
:104DB000DA60054B054ADA66059800F025FB059B8D
:104DC000184607B05DF804FB100000206D4C000889
:104DD00000B589B001900091019B0593059B002BC4
:104DE00006D0059B1B78032B02D1009B002B07DA12
:104DF0006FF003010598FFF781F96FF0030353E0AB
:104E0000059B5B78002B07D16FF002010598FFF737
:104E100075F96FF0020347E000990598FFF7D8FE97
:104E20000690059B9B68079333E0079B9B68049360
:104E3000079B596A079B93F823301A460598FFF79A
:104E4000D7FE0390039B002B21D0079B93F82330C0
:104E500003F00203002B06D1079B5B6ADB43039A36
:104E60001340069301E0039B0693079802F0E8FFC6
:104E700000220399079803F029FA079B596A079BB8
:104E800093F823301A46039B059800F0E3FA049B3D
:104E90000793079B002BC8D1002003F0CBF906999C
:104EA000059800F0BCFA069B184609B05DF804FBB3
:104EB00000B589B00390029101920093039B079380
:104EC000FFF780FE0690069B002B07D16FF00701CD
:104ED0000798FFF713F94FF0FF3351E0079B002BC2
:104EE00006D0079B1B78032B02D1029B002B07DA0D
:104EF0006FF003010798FFF701F96FF003033FE03C
:104F0000079B5B78002B07D16FF002010798FFF732
:104F1000F5F86FF0020333E0019A02990798FFF762
:104F200067FE0590059B002B07D0059B019A02990F
:104F3000079800F08FFA059B22E0009B002B18D009
:104F4000009B019A0299079800F077FA069B029A53
:104F50005A62019BDAB2069B83F8232006990798D0
:104F600002F0F2FE0099432003F0D4F96FF0010340
:104F700006E0019A0299079800F074FA6FF00203B4
:104F8000184609B05DF804FB00B585B00190019B9F
:104F90000393039B002B03D0039B1B78032B07D0A9
:104FA0006FF003010398FFF7A9F86FF0030341E0E6
:104FB000039B5B78002B07D16FF002010398FFF78A
:104FC0009DF86FF0020335E0039B00225A70039BAB
:104FD0009B68002B10D0039802F0E8FE029000229C
:104FE0006FF00201029803F071F9039B9B68002B9C
:104FF000F1D1002003F01EF9039B9B7803F001031D
:10500000002B13D00D4BD3F89830002B07D00B4B4F
:10501000D3F898300399184600F0E0FF06E0074BFC
:10502000D3F888300399184600F0BCFE039800F0CE
:1050300025FA0023184605B05DF804FB1000002097
:1050400000B585B001900091019B0393039B002B59
:1050500006D0039B1B78032B02D1009B002B07DAA1
:105060006FF003010398FFF749F86FF0030318E0AE
:10507000039B5B78002B07D16FF002010398FFF7C9
:105080003DF86FF002030CE000990398FFF7A0FDD4
:105090000290039802F090FD0299039800F0BFF986
:1050A000029B184605B05DF804FB00B587B003907D
:1050B000029101920093039B0593059B002B09D05D
:1050C000059B1B78032B05D1009B002B02D1029B73
:1050D000002B07DA6FF003010598FFF70FF86FF068
:1050E000030323E0059B5B78002B07D16FF00201DF
:1050F0000598FFF703F86FF0020317E0019A029991
:105100000598FFF775FD0490049B002B07D0049BC6
:10511000019A0299059800F09DF9049B06E0019A16
:105120000299059800F09EF96FF00203184607B047
:105130005DF804FB00B587B00190019800F05FF9BD
:10514000EFF305830593059B002B0BD1EFF3108341
:105150000493049B002B05D1EFF311830393039B6E
:10516000002B06D06FF005010020FEF7C7FF0023DB
:1051700018E0019B0293029B18460C4B9C46EFF3F0
:10518000148313F0020F0AD113F0040FEFF3088316
:105190000CBF203B683B23F0070383F3098800DF43
:1051A000034600BF184607B05DF804FBDD4C00085D
:1051B00000B589B0019000910099019800F029F99B
:1051C000EFF305830793079B002B0BD1EFF31083BD
:1051D0000693069B002B05D1EFF311830593059BE6
:1051E000002B05D000990198FFF72AFF03460BE03A
:1051F000019B0493009B0393049B18460399044B63
:105200009C4600DF034600BF184609B05DF804FB6A
:10521000D14D000810B58CB003900291019200931B
:10522000009B019A0299039800F0FFF8EFF30583C1
:105230000B930B9B002B0BD1EFF310830A930A9B6C
:10524000002B05D1EFF311830993099B002B07D0A5
:10525000009B019A02990398FFF727FF034611E08C
:10526000039B0893029B0793019B0693009B059366
:10527000089B18460799069A059B044CA44600DF34
:10528000034600BF18460CB010BD00BFB14E000869
:1052900000B587B00190019800F0EBF8EFF30583BB
:1052A0000593059B002B0BD1EFF310830493049B14
:1052B000002B05D1EFF311830393039B002B07D041
:1052C0006FF005010198FEF719FF6FF0050308E084
:1052D000019B0293029B1846044B9C4600DF034649
:1052E00000BF184607B05DF804FB00BF894F0008F7
:1052F00084B003900291019200BF04B0704784B063
:10530000039002910192009300BF04B0704784B0F3
:1053100003900291019200BF04B0704784B00390E3
:1053200002910192009300BF04B0704782B00190D7
:10533000009100BF02B0704784B0039002910192C7
:1053400000BF04B0704700BF704700BF704782B015
:10535000019000BF02B0704700BF704700BF7047A8
:1053600084B003900291019200BF04B0704782B0F4
:10537000019000BF02B0704782B00190009100BF61
:1053800002B0704782B0019000BF02B0704782B097
:10539000019000BF02B0704782B00190009100BF41
:1053A00002B0704782B00190009100BF02B0704718
:1053B00082B0019000BF02B0704700BF704782B05A
:1053C000019000BF02B0704782B0019000BF02B0F0
:1053D000704700BF704784B003900291019200BFF4
:1053E00004B0704782B0019000BF02B0704700BFA8
:1053F000704782B00190009100BF02B0704782B048
:10540000019000BF02B0704782B0019000BF02B0AF
:10541000704782B00190009100BF02B0704782B027
:105420000190009100BF02B0704784B003900291D8
:105430000192009300BF04B0704784B003900291C2
:105440000192009300BF04B0704782B0019000BF8A
:1054500002B0704784B0039002910192009300BFA4
:1054600004B0704784B003900291019200BF04B071
:10547000704782B0019000BF02B0704782B00190C7
:1054800000BF02B0704782B0019000BF02B0704709
:1054900082B0019000BF02B0704782B001900091CD
:1054A00000BF02B0704782B00190009100BF02B00F
:1054B000704782B0019000BF02B0704782B0019087
:1054C000009100BF02B0704782B0019000BF02B0EF
:1054D000704782B0019000BF02B0704782B0019067
:1054E000009100BF02B0704782B0019000BF02B0CF
:1054F000704782B0019000BF02B0704784B0039043
:105500000291019200BF04B0704782B0019000BFC9
:1055100002B0704782B0019000BF02B0704782B005
:10552000019000BF02B0704782B0019000BF02B08E
:10553000704782B0019000BF02B0704782B0019006
:1055400000BF02B0704782B0019000BF02B0704748
:1055500082B0019000BF02B0704784B00390029106
:10556000019200BF04B0704782B0019000BF02B04A
:10557000704784B003900291009313468DF8073072
:1055800000BF04B0704784B003900291019200BF45
:1055900004B0704782B0019000BF02B0704782B083
:1055A0000190009100BF02B0704782B0019000915D
:1055B00000BF02B0704782B00190009100BF02B0FE
:1055C000704784B0039002910192009300BF04B031
:1055D000704784B003900291019200BF04B07047FD
:1055E00082B0019000BF02B0704782B0019000917C
:1055F00000BF02B0704782B00190009100BF02B0BE
:1056000070470000034BDB681B0A03F007031846D2
:10561000704700BF00ED00E000B583B0114BFF22E2
:1056200083F822200F4B93F82230DBB263F0FF03A4
:10563000DB43B3FA83F3C3F120030193FFF7E2FFE7
:105640000090009A019B9A4202D3009B0133019380
:10565000FE22019B9A40034BD2B2DA7700BF03B01F
:105660005DF804FB00ED00E082B00190044A019B6C
:10567000134403F54073FF221A7000BF02B0704755
:1056800000E100E082B00190019B03F01F02054998
:10569000019B5B11012000FA02F241F8232000BFB8
:1056A00002B0704700E100E008B5464B1B7A012BC1
:1056B00003D1FFF74AFE002360E1424B1B7A002B27
:1056C00006D04FF0FF30FEF7F3FC4FF0FF3355E10B
:1056D000A82200213C4816F091FB3C4B5B6D472B08
:1056E00006D86FF00A00FEF7E3FC4FF0FF3345E108
:1056F000364BDB68002B03D0344B1B8A002B06D1C2
:105700004FF0FF30FEF7D4FC4FF0FF3336E12F4B64
:10571000DB682C4A53662D4B1A8A2A4BA3F85C206F
:105720002A4B9B68274A9364284BDB6A274A126BF3
:105730001146184600F080FA0346002B04D0234B94
:10574000DB6A204AC2F88830204B5B691F4A9269A5
:105750001146184600F070FA0346002B04D01B4B8C
:105760005B69184AD36704E0164BD3F88830154AB2
:10577000D367164BDB69154A126A1146184600F0CA
:105780005BFA0346002B05D0104BDB690D4AC2F8CB
:10579000803005E00B4BD3F888300A4AC2F88030DD
:1057A0000A4B5B6A094A926A1146184600F044FAAD
:1057B0000346002B0CD0054B5B6A024AC2F88430CA
:1057C0000CE000BF1000002018000020A890020884
:1057D0006B4BD3F888306A4AC2F88430694B5B6BF4
:1057E000002B14D0674B586B664B5B6B1968654B8D
:1057F0005B6B9A68634B5B6BDB6800F07BFB03467B
:10580000002B04D05F4B5B6B5D4AC2F88C305D4B64
:105810009B6B002B14D05B4B986B5A4B9B6B19689E
:10582000584B9B6B9A68574B9B6BDB6800F062FB95
:105830000346002B04D0534B9B6B514AC2F8903067
:10584000504BDB6B002B14D04E4BD86B4D4BDB6BAE
:1058500019684C4BDB6B9A684A4BDB6BDB6800F0DA
:1058600049FB0346002B04D0464BDB6B444AC2F88D
:105870009430444B1B6C002B14D0424B186C414BA2
:105880001B6C19683F4B1B6C9A683E4B1B6CDB68AA
:1058900000F030FB0346002B04D03A4B1B6C384A17
:1058A000C2F89830374B5B6C002B14D0354B586CDA
:1058B000344B5B6C1968334B5B6C9A68314B5B6C97
:1058C000DB6800F017FB0346002B04D02D4B5B6C0C
:1058D0002B4AC2F89C302B4B9B6C002B14D0294BCD
:1058E000986C284B9B6C1968264B9B6C9A68254BCF
:1058F0009B6CDB6800F0FEFA0346002B04D0214BC2
:105900009B6C1F4AC2F8A0301E4BDB6C002B14D0DE
:105910001C4BD86C1B4BDB6C19681A4BDB6C9A6800
:10592000184BDB6CDB6800F0E5FA0346002B04D073
:10593000144BDB6C124AC2F8A430124B1B6D002BC7
:1059400014D0104B186D0F4B1B6D19680D4B1B6D50
:105950009A680C4B1B6DDB6800F0CCFA0346002BF9
:1059600004D0084B1B6D064AC2F8A830FFF754FE5E
:10597000034B01221A72FFF7E8FC0023184608BD0A
:1059800010000020A890020808B5044B1B7A1846A6
:10599000FFF7DDFC014B1B7A184608BD1000002004
:1059A00000B585B0434B1B7A012B06D06FF0060083
:1059B000FEF77EFB4FF0FF3377E03E4B1B6B002B77
:1059C00014D13D4B9A6D002300213C4802F02AFD82
:1059D0000346384A1363374B1B6B002B06D14FF03D
:1059E000FF30FEF765FB4FF0FF335EE0324B5B6E3E
:1059F000002B18D02F4B1B6D002B14D12E4BDA6DC2
:105A0000002300212E4802F00DFD0346294A1365AC
:105A1000284B1B6D002B06D14FF0FF30FEF748FBE3
:105A20004FF0FF3341E0274802F0C0F90390039B99
:105A3000002B06D14FF0FF30FEF73AFB4FF0FF335B
:105A400033E0039802F0CAFB1B4B1B6803F0010311
:105A5000002B05D002230293029B83F3148805E0F8
:105A600003230193019B83F3148800BF164B1B682B
:105A7000104AD36002F0C0F803460E4A93610D4B02
:105A80009B69002B09DB0B4B9B691846FFF7ECFD6C
:105A9000084B9B691846FFF7F5FD02F0BFF8054B70
:105AA00002221A72FFF75AFC0023184605B05DF86F
:105AB00004FB00BF10000020A8900208598E0008C7
:105AC000E98D000834000020C000002000B585B03A
:105AD000FFF739FCEFF305830393039B002B0BD1F6
